:10000000B81700206D11000079640000591100003C
:100010005911000059110000591100005911000038
:100020000000000000000000000000003D12000081
:1000300059110000000000000114000059110000D7
:10004000811400008114000081140000811400005C
:10005000811400008114000081140000811400004C
:10006000811400008114000081140000811400003C
:10007000811400008114000081140000811400002C
:10047C007BB972B90029BEBF00204FF0004106E0E5
:10048C0008BF00281CBF6FF000414FF0FF3000F098
:10049C0057B8ADF1080C6DE904CE002909DB002B2F
:1004AC001ADB00F04FF8DDF804E0DDE9022304B0BC
:1004BC007047404261EB4101002B1BDB00F042F81E
:1004CC00DDF804E0DDE9022304B0404261EB4101B8
:1004DC00524263EB43037047524263EB430300F019
:1004EC0031F8DDF804E0DDE9022304B0404261EBB1
:1004FC0041017047524263EB430300F023F8DDF8EF
:10050C0004E0DDE9022304B0524263EB430370477D
:10051C0053B94AB9002908BF00281CBF4FF0FF315E
:10052C004FF0FF3000F00CB8ADF1080C6DE904CEC3
:10053C0000F008F8DDF804E0DDE9022304B07047B0
:10054C00704700BF2DE9F0478C468E46089E154635
:10055C0004461946002B40F0D080724547D9B2FAB8
:10056C0082F74FB1C7F120030EFA07FCBD40BC4027
:10057C0020FA03F343EA0C0C4FEA154EA8B2230CF5
:10058C00BCFBFEF80EFB18CC08FB00F943EA0C434D
:10059C00994528D9EB1808F1FF3204D2994502D9B4
:1005AC00A8F102022B44A3EB0903A4B2B3FBFEFC9B
:1005BC000EFB1C330CFB00F044EA0344A04214D99C
:1005CC002C190CF1FF3304D2A04202D9ACF1020376
:1005DC002C44241A43EA02401EB1FC400023346030
:1005EC007360BDE8F0874246DDE76346F1E7002A19
:1005FC0079D0B2FA82F3002B3FD01946C1F1200317
:10060C0002FA01F500FA01F42EFA03F20EFA01FED9
:10061C0020FA03F3AFB243EA0E034FEA154EB2FBD6
:10062C00FEFC0EFB1C201A0C0CFB07F842EA0042E5
:10063C0090455AD9AA180CF1FF3004D2904502D932
:10064C00ACF102002A44A2EB08029BB2B2FBFEFC06
:10065C000EFB1C220CFB07F743EA02439F4246D9D0
:10066C00EB180CF1FF3204D29F4202D9ACF102021A
:10067C002B44DB1B42EA004202E0AEEB02030122F8
:10068C004FEA154EAFB2200CB3FBFEFC0EFB1C3335
:10069C000CFB07F840EA034398452AD9EB180CF1F8
:1006AC00FF3004D2984502D9ACF102002B44A3EBE5
:1006BC000803A4B2B3FBFEFC0EFB1C330CFB07F7C8
:1006CC0044EA0344A74216D92C190CF1FF3304D287
:1006DC00A74202D9ACF102032C44E41B43EA0040CC
:1006EC000F46114678E71F2188E76046ABE7624664
:1006FC00BFE76046DBE76346EFE7734506D916B9FB
:10070C00002108466DE7C6E9000EF9E7B3FA83F756
:10071C0087B9734501D3824207D8841A6EEB030361
:10072C0001209C461EB900215BE73846FAE7C6E972
:10073C00004CF8E7C7F1200CBB4000FA07F422FA92
:10074C000CF520FA0CF1BA401D432EFA0CF30EFAFC
:10075C0007FE4FEA154941EA0E011FFA85FEB3FB6D
:10076C00F9F809FB18300B0C08FB0EFA43EA0043AE
:10077C009A4540D9EB1808F1FF3004D29A4502D9BA
:10078C00A8F102002B44A3EB0A0389B2B3FBF9F8DE
:10079C0009FB183308FB0EFE41EA03418E452CD9A8
:1007AC00691808F1FF3304D28E4502D9A8F102036F
:1007BC00294443EA0040A1EB0E01A0FB02984145FD
:1007CC00CE46434602D306D14C4504D20138B9EB90
:1007DC00020E68EB0503002EA5D0B4EB0E0261EB04
:1007EC00030101FA0CFC22FA07F3F9404CEA03036B
:1007FC00C6E9003197E74046C5E74346D9E7000014
:10080C002DE9F04F95B0142200210FA806F0D4FE6C
:10081C000DF11E03119302230024694D129355F818
:10082C00060C06F0C4FA58B914236343654A6648AB
:10083C00D358196805F02CFD002015B0BDE8F08FD9
:10084C0015F8013C63B155F8060C836829461B6802
:10085C009847024638B121465C4805F019FDEBE794
:10086C006FF08502F7E7631C022B4FF0010405F1D2
:10087C001405D4D15648C82105F00AFD554805F099
:10088C0007FD06F025FC4FF47A75A0FB050647F62C
:10089C00122205FB01610023FFF73AFEDFF82481E9
:1008AC000026C2464FF0140BCDE904010BAF0DAD81
:1008BC0098F8052062B198F8042004FA02F210921C
:1008CC0098F810208DF84C2098F811208DF84D20B8
:1008DC00D8F8000082680FA952689047024618B3F6
:1008EC0031463D4805F0D4FC00223A602A60721C67
:1008FC00022A4FF0010608F1140807F1040705F16C
:10090C000405D5D10E9B354803930C9B02930D9B8C
:10091C0001930B9B0093DDE9042305F0B9FC002146
:10092C009D2006F008FBACE7BDF91E1098F80520D9
:10093C0039602960002ADAD098F807200BFB06AC46
:10094C00042A0ABFD8F80020B8F80E0092689CF868
:10095C000AC008BF108998F8109081FB00101CF099
:10096C00200FCDE9081018BF09F1FF3298F80600E6
:10097C0008A918BF5FFA82F901F036F80028B6D141
:10098C0009980899C9F1200EB9F1200C00FA0EFE55
:10099C0021FA09F141EA0E015CBF40FA0CFC41EA74
:1009AC000C0140FA09F0CDE9081011F1004140F1B9
:1009BC00000010B10A4805F078FC089A96E700BFD1
:1009CC00AE800000A8800000488200005C8200001D
:1009DC007C820000A6820000CA820000078300000F
:1009EC00E3820000014B1B68184700BF90010020F8
:1009FC00014B1860704700BF9001002030B50446D1
:100A0C0085B00D4610220021684606F0D5FD022364
:100A1C008DF80230044B2A4621466846019305F0B6
:100A2C0085F905B030BD00BFF109000080B5054661
:100A3C000E461746984603F059FF034600F02CFD6E
:100A4C000446DFF81890424649F8003039463046E3
:100A5C00A84754F8090000F0B7FC00BF08000000DC
:100A6C002DE9F047058B0446280717460CD50129BC
:100A7C000CBF45F0100545F02005258387F3118840
:100A8C00BFF36F8FBDE8F087022905F0070540F032
:100A9C009480204605F016FC052864D801A353F871
:100AAC0020F000BF890A0000C70B0000730B000088
:100ABC00350B00004F0B0000610B000001F0070329
:100ACC005A1F012A1FD8002221F00701062BD4F847
:100ADC00008089B2C4E9002209D1434603E0628B4D
:100AEC00013262831B68002BF9D141F002012046D0
:100AFC00218305F0E7FB4FF0000900286DD041F091
:100B0C002001218369E0042B0AD121F0070189B26D
:100B1C002046218305F0D6FB10B141F02001218342
:100B2C004FF00008C14658E02369D3F80090238B9E
:100B3C0023F0070343F006034FF0000823834646D7
:100B4C004BE02369D3F80490238B23F0070343F085
:100B5C000403F1E72369D3F80890238B23F00703F0
:100B6C0043F00503E8E74FF00008C146E7E7012230
:100B7C0043F00803238387F31188BFF36F8F002A98
:100B8C003BD1B8F1000F4AD1B9F1000F02D0204689
:100B9C002C49C847EFF31187202383F31288BFF346
:100BAC006F8F238B23F008039BB22383D9063FD589
:100BBC0023F01002228303F007056669218B002EB7
:100BCC00BFF67CAF00239946D4F8008021F00701D2
:100BDC00C4E9003341F001012183238B03F0070AA0
:100BEC00AA4502D0A268002AC1D1B8F1000F02D1E7
:100BFC00B9F1000FDAD00022BAE7A1680029C0D001
:100C0C000D680029BDD03346524620464F68B84780
:100C1C001DB12B6829461D46F3E72B46FAE74146E2
:100C2C00334652462046D8F8008005F077FBA8E7FB
:100C3C009A067FF523AF23F02002228303F00705E9
:100C4C0027E700BF55630000014B0360002070478D
:100C5C00D080000008B5044805F01AFB034805F0E5
:100C6C0017FB002008BD00BF198300004E83000055
:100C7C0008B50348034A0021121A05F0EFFB08BD22
:100C8C0060030020740A0020074808B5074A084989
:100C9C00121A05F0E5FBBDE808400648064A07496C
:100CAC00121A05F0DDBB00BF6000002060030020BD
:100CBC006088000060000020600000206088000058
:100CCC0038B505460C4699B1D1E901230F4809689E
:100CDC0005F0DEFAD4E90423E1680D4805F0D8FAF2
:100CEC00E1690C4805F0D4FAA1690B4805F0D0FA7B
:100CFC00012D05D1EFF305810848103905F0C8FA2C
:100D0C0021462846BDE8384003F032B97B83000009
:100D1C00AB830000DB830000EB8300001A8400002F
:100D2C0030BFFFF7FDBF00BF2DE9F04105460B4E6C
:100D3C00DFF82C80324606EB0807CC1B204609490D
:100D4C0006F02DFCA01942460021083C06F034FCAC
:100D5C00AC6707F10800BDE8F08100BF000000009F
:100D6C00040000008080000010B5204C204805F0E5
:100D7C008FFAA36A990137D51E4805F089FA1E200F
:100D8C00A36ADA0103D51C4805F082FA1F20174C20
:100D9C00A36ADB0203D5194805F07AFA0220A36A8C
:100DAC001C0303D5164805F073FA21200F4CA36AD7
:100DBC00590303D5134805F06BFA2220A36A9A0352
:100DCC0003D5114805F064FA2320084CA36ADB0311
:100DDC0003D50E4805F05CFA2420A36A6FEA03439E
:100DEC006FEA1343A36210BD1D20C9E700ED00E0BC
:100DFC002E840000478400005B8400007684000091
:100E0C00A1840000C0840000E6840000018500007D
:100E1C0070B5244C064624480D4605F039FAA36AF1
:100E2C00D90435D5214805F033FA1720A36A1A05E1
:100E3C0003D51F4805F02CFA18201A4CA36A9B0501
:100E4C000FD51C4805F024FAA16BA36A180407D52A
:100E5C00194805F01DFA1EB1A36A23F40043A362DE
:100E6C001920104CA36A590503D5144805F010FA43
:100E7C001A20A36ADA050DD5114805F009FA1B20D2
:100E8C00084A936A43F47F43936200232B7070BD2E
:100E9C001620CBE7A36A9B04F2D50A4805F0F8F9B3
:100EAC001C20EDE700ED00E02D85000044850000DE
:100EBC00568500006A850000848500009A85000034
:100ECC00B6850000CF85000070B5264C0646264836
:100EDC000D4605F0DDF9A36AD80640D5234805F088
:100EEC00D7F91120A36A190703D5214805F0D0F9C9
:100EFC0012201C4CA36A9A070FD51E4805F0C8F99E
:100F0C00616BA36A1B0607D51B4805F0C1F91EB11E
:100F1C00A36A23F08003A3621320124CA36ADE079A
:100F2C0003D5164805F0B4F91420A36A9C0603D522
:100F3C00134805F0ADF915200A4B9A6AD10658BF33
:100F4C009A6A9A6A920642BF5A6A22F400525A620C
:100F5C009A6A42F0FF029A6200232B7070BD102037
:100F6C00C0E700BF00ED00E0FF8500001686000022
:100F7C00568500004A860000638600007A860000D1
:100F8C00CF8500002DE9F0415D4B04465F680025DC
:100F9C008AB0C7F3080685F31188BFF36F8F02F090
:100FAC007F43B3F17F4F06D102F00C03082B13D112
:100FBC00544805F06DF900252C464FF00008F31E3F
:100FCC008DF80780092B00F28B80DFE803F00A7F95
:100FDC00837B89898989898710074CBF0C46012539
:100FEC00EBE74948464E05F053F98DF80780F36A54
:100FFC009A0704D5454805F04BF900232AE0F36A1B
:10100C00002B01DA4248F6E7F36A5B00F5D541485C
:10101C0005F03EF97369A26943F480737361BFF301
:10102C004F8FBFF36F8F32F8023C726922F48072DB
:10103C007261BFF34F8FBFF36F8F03F47F42B2F532
:10104C005F4F27D1DBB2022B24D12168324805F047
:10105C001FF923689DF80720CAB902AE04F12007D6
:10106C00324620686168083403C2BC421646F7D188
:10107C00099A002D40D0C2F3080121B96FEA52221F
:10108C006FEA42220992184602A9FFF719FE0AB02C
:10109C00BDE8F0811A4B9A6AD2B22AB101200DF147
:1010AC000701FFF711FF0FE09A6A12F47F4F05D08A
:1010BC0001200DF10701FFF7ABFE05E09B6AB3F5CC
:1010CC00803F9AD3FFF750FE0346C3E700200DF193
:1010DC000701E6E700200DF10701ECE70F488AE76E
:1010EC000F4B17F4F87F0F490F4808BF1946A6F1AC
:1010FC00100205F0CDF880E76FF30802C2E700BFDD
:10110C0000ED00E0C8860000F48600000C870000AB
:10111C002E8700003D8700005D8700007A87000065
:10112C009A860000AF8600009F870000064B5A6924
:10113C0042F010025A615A6942F480625A615A694B
:10114C0022F008025A61704700ED00E0EFF30880CE
:10115C00EFF3098101B57246FFF714FF01BD00BF23
:10116C00002080F31488BFF36F8F002080F30A886F
:10117C0080F30B880F4880F3088801F02FFC0020C7
:10118C000D490860BFF34F8F00F02CF8202080F33E
:10119C0011880A484FF40061401880F30988EFF376
:1011AC0014800221084380F31488BFF36F8F00F082
:1011BC00A5F80000B817002094ED00E0780A002094
:1011CC00002318460649D1F89020C2F30722934217
:1011DC0000DB7047C1F89830C1F8A0000133F6E786
:1011EC0000ED00E010B572B6002484F31388FFF70D
:1011FC00E7FF23464FF0FF300C4A03F12001013387
:10120C00102B42F82100F8D100234FF0FF30074A91
:10121C0003F160010133102B42F82100F8D162B6C2
:10122C00BFF34F8FBFF36F8F10BD00BF00E100E025
:10123C001EF0040F0CBFEFF30880EFF309808169F7
:10124C0011F8021C0229FFD001B5724605F00AF90B
:10125C0001BD00BF00B2002807DB01234109034A8E
:10126C0000F01F00834042F82130704700E100E09D
:10127C0000B200280CDB01220649430900F01F00D4
:10128C008240203341F82320BFF34F8FBFF36F8F81
:10129C00704700BF00E100E0054B420953F82220E3
:1012AC00012300F01F0003FA00F01040704700BF4C
:1012BC0000E100E000B2002801F10101ACBF00F137
:1012CC006040064B4FEA4111C9B2ABBF00F561401B
:1012DC0000F00F0080F800131954704714ED00E073
:1012EC00044B054A23F07F039360BFF34F8FBFF38A
:1012FC006F8F70470000000000ED00E008B5FFF7AD
:10130C00EFFF074AD2F8883023F47003C2F8883014
:10131C00FFF7AEFCFFF7B8FC00F09CF802F0ECFE17
:10132C0000ED00E042F8203C009B0B4942F81C3CCD
:10133C00019B21F0010142F8183C029B42F8081C69
:10134C0042F8143C4FF0807342F8043C0023203ADE
:10135C000265C367704700BF390A000000B50D4B2A
:10136C0015469860826F0C4B0E461A60836E83F3A1
:10137C000B882C4686F309880020044B984720469E
:10138C00002100220023024C204700009D64000035
:10139C00390A0000C4060020800500201022014BF1
:1013AC001A61704700ED00E0054B5A699B689A4240
:1013BC001FBF044A536843F080535360704700BF0B
:1013CC00C406002000ED00E0084B9B6883420BD163
:1013DC00EFF3058343B1064B5A6842F080525A60D2
:1013EC005A6A22F400425A6203F086BAC4060020FC
:1013FC0000ED00E014498A684FF030001044EFF320
:10140C00098C80E8F01F202080F31288BFF36F8FC7
:10141C000E4F4FF000664A698A603E60906F0C4C2C
:10142C002060D06F0023D36780F3118802F1300065
:10143C0090E8F01F8CF3098802F1000004B505F068
:10144C0020F8BDE804407047C406002004ED00E01D
:10145C00800500200023202040F20F1210B5044C10
:10146C00E1180133934281F80003F9D110BD00BF9C
:10147C0000E100E008B5EFF30583064A103B02EBF0
:10148C00C30152F8330049688847BDE80840FFF7AC
:10149C008BBF00BFB07700000148006870470000A8
:1014AC00800500201FB50121094B0A4A0A4800F0AB
:1014BC00F7F80023064A0393084B0121019301A876
:1014CC00D31A029300F0F6F805B05DF804FB00BFE8
:1014DC000000042000000020D080000060030020E9
:1014EC000A7A0B6810B562F304031C46CB685209E8
:1014FC0023F01F0343EA4203044A43F00103C2F8FA
:10150C009800C2F89C40C2F8A03010BD00ED00E07D
:10151C0010B5074BD3F89030C3F30723013B984227
:10152C0002D8FFF7DDFF10BD6FF01500FBE700BF21
:10153C0000ED00E02DE9F04F0F46144606464FF043
:10154C0000084B4D85B0B84580F28E80D6F80490DB
:10155C00B9F1000F35D0B9F11F0F40F2838019F0AB
:10156C001F0F7FD1D6F800A01AF01F0F7AD150466A
:10157C0004F0B1FF834609EB0A00013804F0ABFF1D
:10158C0083456FD11BF1160F6CD05C456ADDC5F835
:10159C0098B0D5F89C10C5F898B0D5F8A03021F0CB
:1015AC001F0143F01F0AD6E900321A44994202F196
:1015BC00FF391BD1CA4508D131465FFA8BF004F0D4
:1015CC0093FF08F101080C36BDE73146C5F898B019
:1015DC00D5F89C30E0B263F30402C5F89C2004F00B
:1015EC0083FF10F1160F3DD0441CEAE7C5F898B004
:1015FC00D5F8A020013B23F01F0302F01F02134378
:10160C00CA453146E0B2C5F8A030E8D004F06CFF12
:10161C0010F1160F26D0C5F898B0D5F89C209DF87F
:10162C0008300AF1FF3A62F304038DF80830D5F85C
:10163C00A0309DF808205B0863F347128DF8082052
:10164C00D6E900321344009323F01F035344A3EB59
:10165C000903013023F01F036946C0B20393FFF75F
:10166C0057FFBEE76FF01504204605B0BDE8F08FBC
:10167C0000ED00E00522044BC3F89420BFF34F8F1C
:10168C00BFF36F8F704700BF00ED00E0BFF35F8FBB
:10169C000022024BC3F89420704700BF00ED00E01D
:1016AC0010B5034C2278FFF745FF207010BD00BF2A
:1016BC006C0A00202DE9F74F294D8A4606464FF05B
:1016CC000008AB46274FD0451BDAD6F80490B9F189
:1016DC00000F3FD031680846019104F0FCFE0199DF
:1016EC00044609EB0100013804F0F5FE84424FF08A
:1016FC0014021D4B08D002FB08F36FF015024BF8D7
:10170C00032003B0BDE8F08F14F1160F2C60F8D055
:10171C001978A142F5DD02FB08B0C7F89840C7F86C
:10172C009840D7F89C4000F10801007B64F304005A
:10173C000871D7F8A0000C79400860F347140C71BD
:10174C00D7F89C1021F01F016960D7F8A01021F088
:10175C001F01296108F1010814350C36B3E700BFED
:10176C008405002000ED00E06C0A0020F0B5534920
:10177C00534DD1F890302C68C3F307239C4287B0AB
:10178C0000F299800020FFF781FF4E4BC1F8C0306A
:10179C00844216D14C4D01A82C70FFF755FA002647
:1017AC0007464A4CB74213D100202B784349D1F855
:1017BC009020C2F30722934277DBFFF75BFF0020F8
:1017CC0046E0696801EB0011FFF78AFE0130DFE7A4
:1017DC000199300101EB0613DA682240B2F1807FE7
:1017EC0052D00AD8B2F5001F34D0B2F5800F3ED0DB
:1017FC00B2F5801F12D00136D4E7B2F1006F43D09E
:10180C00B2F1805FF7D15A689B680958013B22F00E
:10181C001F00034423F01F03012032E05A689B6829
:10182C000958013B22F01F0003440120844623F099
:10183C001F0340EA4C10CDE902218DF8100002A9DB
:10184C0028780593FFF764FE00282ADA6FF015005C
:10185C0007B0F0BD5A689B680958013B22F01F0085
:10186C0003444FF0020C012023F01F03E1E75A68F8
:10187C009B680958013B22F01F000344062023F00B
:10188C001F034FF0000CD4E75A689B680958013BC2
:10189C0022F01F0003444FF0030C012023F01F0320
:1018AC00C7E72B7801332B70A5E7C1F89830C1F846
:1018BC00A00001337BE74FF0FF30C9E700ED00E0FB
:1018CC00DC800000AAFF44006C0A00200000F0FF3E
:1018DC0008B5024B1B689847002008BD98050020EE
:1018EC00034B044A1860937843F0020393707047DB
:1018FC00980500209401002008B50649064821F0FF
:10190C000701C1F1005202F5802204F07EFC002098
:10191C0008BD00BFBF1700209C05002008B5244A55
:10192C00244B1A6000F0F4FA4FF47A612248D0F894
:10193C002436C3F30802C3F309434B4382F4807289
:10194C001E49883201FB02334FF4FA215B00B3FBD2
:10195C00F1F201FB12331A49B3F57A3F28BF013279
:10196C00C1F80429D0F820364FF47A60C3F308028A
:10197C00C3F30943434342F21C5082F4807202F2D7
:10198C00172200FB02334FF47A701B0AB3FBF0F200
:10199C0000FB12330020B3F5FA7F4FF0010328BF90
:1019AC000132C1F81C27C1F80009C1F8003608BD86
:1019BC000020A107A002002000C0FF00F82A008030
:1019CC000000125048B1054B054A1B68B3FBF2F3FB
:1019DC005843044B43F0010318477047A002002002
:1019EC0040420F0090800000142870B503460C464E
:1019FC0012D80B4A12F81010D4E90005A0FB01060E
:101A0C0002EB430201FB056100235278FEF730FD27
:101A1C00C4E90001002070BD6FF01500FBE700BFAA
:101A2C001A880000002330B50A7985B00393CDE9FC
:101A3C0001334B7912F020048DF80C3018D08B79CF
:101A4C007F2B08BFFF238DF80D30C2F3040302F087
:101A5C001F02072A8DF80E300CD80B78023B082B8E
:101A6C0008D8DFE803F00B494B4D4F5107530E00DC
:101A7C00FF23E8E76FF0150005B030BD07238DF8A4
:101A8C0004304B78042B04D0052BF3D101238DF8B3
:101A9C0005304B88002B3BD0C3F30D009B0B012B67
:101AAC0014BF01234FF47A7310FB03F080B27D2333
:101ABC00B0FBF3F3013B9BB2B3F5A07FDAD27C28E9
:101ACC00D8D901251F4805FA02F2ADF80630D2B27A
:101ADC0090F850304CB38C797F2C1CD1134380F888
:101AEC0050300B7990F8512003F01F0305FA03F3E3
:101AFC00134380F8513014E00623C0E70523BEE7FA
:101B0C000423BCE70323BAE70223B8E70123B6E7B3
:101B1C0042F21070CBE723EA02038DF8085080F8EC
:101B2C00503001A805F01AF9A6E7134380F850309D
:101B3C000B7903F01F039D4090F8513023EA050305
:101B4C00D7E700BF6000002010B50B4C94F83A307A
:101B5C0023B1BDE81040094802F0D6B802F022F8D3
:101B6C0040B16FF00403636204F11400BDE810404F
:101B7C0004F0D8BC10BD00BF600000208D1B00001D
:101B8C00F8B50378002B40F08F804F4CE36A94F843
:101B9C00507025461F4207D1A36A002B3FD14B48FA
:101BAC00BDE8F84004F0BEBC94F89810A26D94F80F
:101BBC005160A1B90121DBB20B420BD00F4208D00E
:101BCC0016EA010CB2F9000024D000EBD0704010E2
:101BDC0010800232490089B2B942EDD9DCE73340BA
:101BEC00018915D002EB41019142D5D0B2F90030F8
:101BFC0003EBD3735B1022F8023BF5E732F9136069
:101C0C00002EB8BF22F8130001338B42F6DBC3E77A
:101C1C001846FAE70028B8BFA2F800C0D9E7236C31
:101C2C0043B1B4F84C202A492A48984701280BD0D4
:101C3C0002282DD0B4F84C30B4F848209A4227D959
:101C4C0000200133A4F84C3094F8983083B994F800
:101C5C00521018B9A36D03EB4103A365A06D01F0FD
:101C6C005FFF28B16FF004031848636204F05AFC5C
:101C7C00E36B1BB9BDE8F840FFF766BFD5E8EF3F53
:101C8C005A1EC5E8E12F0029F8D1012BF2DCF8BD72
:101C9C00E36B002B83D094F89830002B7FF47FAF4C
:101CAC000D4803F037F97AE7022B09D101F07AFFDE
:101CBC000028ECD06FF004030348436214306FE744
:101CCC00052BE4D16BE700BF6000002074000020FE
:101CDC008800002094770000C0000020074BD3E858
:101CEC00EF2F511CC3E8E01F0028F8D10AB9FFF709
:101CFC002BBF6FF00F025A62704700BF60000020CC
:101D0C0010B500220C490D4805F0E4F9002001F053
:101D1C0033FE044660B902460121D520FFF7CAFA0A
:101D2C000748C36813B9043004F0FCFB204610BD0F
:101D3C006FF00404FAE700BFE91C0000C0000020AB
:101D4C00600000202DE9FF410F464FF0FF334FF0AC
:101D5C00FF326A4802F02CFB7E68731EFE2B21D8E2
:101D6C000024254626FA04F3DA0706D501F04CFECA
:101D7C00E040C30716D50135EDB20134082CF1D182
:101D8C0085B13B7C083B062B0CD8DFE803F0140B29
:101D9C00160B040B18000221012D7A7C11D0002A9D
:101DAC0000F08F806FF01504544804F0BBFB204604
:101DBC0004B0BDE8F0810021EEE70121ECE703213E
:101DCC00EAE7082AEED8DFE802F005050505050567
:101DDC00050505003B68002B73D05C68002C70D1A6
:101DEC00186801387F286CD88DF808208DF80940C8
:101DFC001B68434A1B01013BADF80A3001233046F6
:101E0C0082F898308DF80C3002AA3E4B01F038FE67
:101E1C0004460028C8D13A686B0012B1928902FBC3
:101E2C000333FA689A4266D3354E86F85250B86836
:101E3C0096F89830B046B065002B4BD03B689D8926
:101E4C000135A9B201F06CFE04460028ACD1BC46A9
:101E5C002D4DBCE80F000FC5DCF8003074622B6010
:101E6C003B68002B44D00FCB2F1D87E80F00F36B82
:101E7C00B762A6F84C40002B3AD0D8E8EF3FC8E840
:101E8C00E24F002AF9D196F898202ABBF36B1F3346
:101E9C0042F100025B0943EAC2635209CDE9003208
:101EAC0005F128000022002302F0FCFF4FF0FF3266
:101EBC004FF0FF33154802F07BFA00B17062746A80
:101ECC0072E700200E4B83F8980030460D4B01F062
:101EDC00A1FD9DE72946B5E701F064FE0028E5D099
:101EEC006FF00403A5F12400736204F01BFBDDE723
:101EFC00FFF72AFEDAE76FF00B0455E764000020C9
:101F0C00600000208D1B0000880000207400002061
:101F1C000122024BC3F80424704700BF002008E0E4
:101F2C00084B70B5C31A0D4607499B10044659431C
:101F3C004022064804F001FB2B4601462046BDE832
:101F4C0070401847BC050020B76DDBB60877000061
:101F5C00402373B50B4C0093041B0B460D460A49EA
:101F6C00A41061430646094A094804F011FB0146D6
:101F7C0028B130462B4602B0BDE87040184702B07D
:101F8C0070BD00BFBC050020B76DDBB60B66000052
:101F9C0008770000F8B500220121054640F2051033
:101FAC00FFF788F90F4800F0B9FD0446B8B900F006
:101FBC00D5FD2F690C49384604F0D3F9031E09DB13
:101FCC0001263E642D69084905F11C0004F0C9F98D
:101FDC00031E02DA1C462046F8BDEE64FBE76FF0E8
:101FEC000404F8E721210000048100001FB5002241
:101FFC0001236C46CDE902236B46074ACDE9004428
:10200C0004F0F6FA28B943F609520023684602F0A8
:10201C00CFF904B010BD00BF1D66000010B5EFF382
:10202C001184202383F31288BFF36F8F074A136840
:10203C0023F00201DB07116002D4012004F02BFC19
:10204C0084F31188BFF36F8F10BD00BF0C06002006
:10205C000C22104B014602FB0033002030B4D3E9B4
:10206C000E529863EFF31180202484F31288BFF38F
:10207C006F8F1C6C04F0C00444F002041C6480F3E9
:10208C001188BFF36F8F1DB12B4630BC0248184727
:10209C0030BC7047BC0500200877000010B4EFF38B
:1020AC001180202282F31288BFF36F8F16490B68C0
:1020BC0043F0020413F001030C6017D0134BD3F858
:1020CC000C3413F4803311D0EFF3118182F31288A6
:1020DC00BFF36F8F0E4A136C03F0C00343F002037F
:1020EC00136481F31188BFF36F8F012380F3118880
:1020FC00BFF36F8F1BB1002010BCFFF7A9BF0120ED
:10210C0010BC04F0C0BB00BF0C06002000E0105057
:10211C00BC050020022808D0042808D1044B186CF8
:10212C0010F0070003D1FFF793BF0120FBE77047C6
:10213C00BC0500202DE9F041012280463549D1E84B
:10214C00EF3FC1E8E02F0028F9D133B932493348C9
:10215C004B60CB608A6004F017F908F1FF33012B58
:10216C004BD8B8F1010F06D12D4BD3F8503403F0F6
:10217C000303012B41D004F043FE054650B1EFF3AD
:10218C001186202383F31288BFF36F8F0125244C13
:10219C00244F20E0244B1B78002BF0D00422204B42
:1021AC000646C3F80823F2E74DB3304604F084F931
:1021BC00D4F8403413F0FF030DD1D4F8082152B1F8
:1021CC00C4F80831D4F8083120220123C4F8403473
:1021DC00C7F8A0212361D4F84C24D4F84C34D20392
:1021EC00E2D503F00303012B02D0B8F1010FDBD1D0
:1021FC0055B186F31188BFF36F8FBDE8F0810021D4
:10220C00202004F098FED3E70422054BC3F80423E6
:10221C00F3E700BFB8050020A8050020D805002072
:10222C0000E0105000E100E06F0A002008B50748FC
:10223C0004F0BDFD38B10648FFF752FB0448FEF729
:10224C00D7FB002008BD6FF01200FBE77877000089
:10225C00612200000A2838B50446074D04D1AB684A
:10226C000D2128465B689847AB6803485B68E1B270
:10227C009847204638BD00BF787700002DE9F04321
:10228C0040F206354768D00648BF4FF0030C3B7C44
:10229C0002EA050558BFC2F3401C87B001F01F06C7
:1022AC00B5F5837F144646EA43168DF803C045D036
:1022BC000DD8062D44D005D8A5B1022D12D06FF043
:1022CC00150038E0B5F5807FF9D101250AE040F220
:1022DC000222954236D0B5F5407F35D0B5F5007F5A
:1022EC00EDD10425220331D501237A688B4053604C
:1022FC00B86890BB5F2E06F01F034FEA561175D8D5
:10230C003C4A52F82120C4F3004102EB8302D2F87C
:10231C00803081F00101C4F3404423F4706344EA3B
:10232C00410423F00F031C4344EA8C0444EA0524C3
:10233C00C2F88040002007B0BDE8F0830925D1E742
:10234C000825CFE70625CDE70525CBE7630341BF7D
:10235C0001237A688B409360CAE731460DF1020283
:10236C0004F06CFC14F4403F80460CD13146B86844
:10237C0004F07DFCB8F1000FDCD19DF80210B868B8
:10238C0000F078FED6E74FF0000901ABCDE90199DA
:10239C00CDE90439CDF80C903146B86803AA04F0A5
:1023AC0096FB4845C6DB14F4003314D09DF803307B
:1023BC00C4F3004484F001048DF80E308DF80C50F9
:1023CC008DF80D404B463146B86803AA00F0A4FDC9
:1023DC000028CFDAAEE7CDE904330DF10303039304
:1023EC003146B86803AA04F072FBF1E7203350F8C9
:1023FC002330FFDE208100004209022A034670B51B
:10240C0003D0012A18D0CAB170BD0E4E3269516882
:10241C000029F9D0012503F01F030C689D40002909
:10242C00F2D08A682A4002D030464B6898473CB1BB
:10243C00236821461C46F2E7034EE7E7034EE5E727
:10244C002346F6E75C770000407700002477000015
:10245C0038B54568A868C0B104F003FC0146A0B9C2
:10246C00A86800F0CFFD044688B902460949A8685F
:10247C0004F0E1FB22460121DB20FEF71BFF224684
:10248C00012140F20D10FEF715FF002038BD6FF052
:10249C000400FBE705240000F0B544681646A0686C
:1024AC00227C01F01F0587B045EA421500286CD04C
:1024BC00B6F5001F04D1294604F02BFC002055E092
:1024CC006268607CB6F5800F50624FF0000001AA84
:1024DC000190506039D1B3F1007F14BF0523042360
:1024EC008DF804300023CDE904230393E3680DF148
:1024FC00030723FA01F111F0010139D1B6F1A07FE4
:10250C0036D105F01F035F2D4FEA551003F1200360
:10251C003ED8214A52F8202052F82330DB0727D42A
:10252C003A462946A06804F089FB163018D0029769
:10253C002946A06803AA04F0CAFA002816DB012277
:10254C002946A06804F095FBB8E7B3F1C06F05D03D
:10255C00B3F1007F14BF01230223C1E70323BFE7BC
:10256C003946A06800F090FD0028E0DA07B0F0BD15
:10257C003A462946A06804F061FB0028D8D19DF8A2
:10258C000310A06800F076FDD2E76FF08500EDE750
:10259C0051F82330FFDE00BF20810000036803F0F8
:1025AC001F025F2B02604FEA53129ABF024B53F883
:1025BC0022000020704700BF688100002DE9F74F12
:1025CC00154606464FF0010800EB8101B14203D1DC
:1025DC00002003B0BDE8F08F3268C2F3C323082B90
:1025EC00C2F3080400F2A0805148C75C40F2FF130C
:1025FC009C4208BF4FF0FF34B2F1D05F4FEA126338
:10260C0010D2192B12D8DFE803F014233734282FFB
:10261C00341111111111111111111111111111117B
:10262C003A717477382B6AD04E2B25D06FF0850019
:10263C00CFE7C5F80446621C56D001A80194FFF7F9
:10264C00ADFF019B4FF0010908FA03F3436029E049
:10265C00C5F80C464FF0000A62E04FF00009C5F8CF
:10266C000046601C16D13FE04FF00109C5F8044646
:10267C00F7E7C5F80846EDE7C5F81046DBE7C5F8FF
:10268C0060457388621C03F001032DD0002BD4D15C
:10269C004FF0010901A80194FFF780FF019B08FA94
:1026AC0003F383604FF0010AD6F800B001A81BF4C5
:1026BC00004F1CBF4FF001094FF0000A0194FFF7C7
:1026CC006DFF019B1B4C00EB8300D0F88020CBF3FB
:1026DC00412B3B0243EA8B0343EA0A031440234396
:1026EC0043EA4903C0F8803004366FE7C5F8644507
:1026FC00C7E7C5F86845C4E7C5F86C45C1E701A84C
:10270C000194FFF74BFF4FF0010A019B00EB830094
:10271C00D0F8803023F0E04343F08043C0F88030A1
:10272C00631CE1D0D146BFE76FF0150051E700BF45
:10273C0044880000F0F0FCFF2DE9F04104460D4602
:10274C00476804F05DFB88B12021EFF311831A4632
:10275C0081F31288BFF36F8F60680068D0F8300186
:10276C00D0B983F31188BFF36F8FEEE71E4B1B7844
:10277C00002BE9D04FF02008642663681B68D3F85F
:10278C003031FBB9012004F047F8013EF5D10021AE
:10279C00202004F0D0FBEFE77B6A00201D706368FB
:1027AC00796A1B68C3F83C170121C3F84017C3F8BA
:1027BC003001D3F83001196582F31188BFF36F8FA4
:1027CC00BDE8F081EFF311831A4688F31288BFF34A
:1027DC006F8F61680968D1F830110029DCD183F35F
:1027EC001188BFF36F8FD2E76F0A002070B40F4CC3
:1027FC00D4E90015501A63EB0506400940EAC6609F
:10280C002026E0FB0615C4E9001500240025084924
:10281C00C1E90023074BC3E90045EFF3118186F3AF
:10282C001288BFF36F8F70BC02F042BA8003002095
:10283C00680300207803002008B500220121E42061
:10284C00FEF738FD164A0020D2F8183723F440332F
:10285C00C2F8183700F060FD002820DB0120114978
:10286C0000F0E6FD00281ADB00F030FD0E4B20F0E6
:10287C001F00C3E900010D4B0022C3E900014FF01A
:10288C00FF304FF0FF310A4BC3E90001094B0A49F5
:10289C00187A00F02BFD67220020084B1A6008BD47
:1028AC0000200E509C0200208003002060030020BA
:1028BC006803002094020020F92700003C06002049
:1028CC0008B500F003FD064AD2E90032C01A054BE8
:1028DC0061EB0201C3E90001400940EAC16008BD97
:1028EC008003002078030020F7B5224B0146224FCD
:1028FC00187A224BD7E90056D3E900239E4208BF31
:10290C00954211D1B1F1806F0ED24901012938BF26
:10291C00012101224D1946F10006C7E9005603B00A
:10292C00BDE8F04000F00ABE154BDFF858C0D3E903
:10293C000043DCE9002CA41843EB0C0C4FF0200EE8
:10294C0022466346C1FB0E23954276EB0301C7E991
:10295C0000230DD2291B66EB0C04C82974F100046A
:10296C00B4BF01210021009100F0B2FD03B0F0BD15
:10297C000021F8E794020020700300206803002077
:10298C008003002078030020064BD3F840231C2A38
:10299C0005D1D3F84403431E5842584170470020D8
:1029AC00704700BF00C0FF0003689A070CD503688E
:1029BC00DB070DD50922074BC3F80C250F22C3F8F2
:1029CC00042501221A60FEE7034B0360EF3B036012
:1029DC00704700BF00801050F000FA5008B501237A
:1029EC00404A4148C2F80038404AD2F840231C2AD9
:1029FC0004BF3F4AC2F80C34FFF7D6FF0830FFF78C
:102A0C00D3FF0830FFF7D0FF0830FFF7CDFF00F5FC
:102A1C00F470FFF7C9FF374AD2F88C3043F44063A7
:102A2C00C2F88C300022D30003F57F0303F540433A
:102A3C00D3F8001401310AD0D3F8001439B1D3F80B
:102A4C0000140132D3F80434402A0B60EBD1254B2F
:102A5C00D3F84024002A41D0FFF796FF48B1234B0E
:102A6C00D3F83423244B9A429EBF1E4B234AC3F8FF
:102A7C004026FFF789FF18B1214B224AC3F8AC2737
:102A8C00FFF782FF48B13422164BC3F82426D3F843
:102A9C003C2622F40022C3F83C261B4B1549D3F8E4
:102AAC000026D20744BF6FF00102C3F80026174B73
:102ABC00D3F8182522F00302C3F81825D3F81825EB
:102ACC0042F00302C3F81825D1F88C2042F440627E
:102ADC00C1F88C200022C3F8A02508BDC822C3F879
:102AEC004024B9E70000125000C50D5000C0FF0093
:102AFC000030055000ED00E0001D0A1840E0A91E52
:102B0C0000A0085078000A0400E0105000B00450F7
:102B1C00014B1B68184700BF4006002010B50C4C39
:102B2C00237993B9012323710A4B0028206018BF25
:102B3C00184600F0F3F850B923680748002B08BF7B
:102B4C001846BDE8104000F035B86FF0770010BDA6
:102B5C00400600201D2B00008F68000008B5074BB5
:102B6C001B6853B140F20510FEF796FB28B9BDE87F
:102B7C00084040F20510FEF76DBB08BD4006002072
:102B8C0038B504230A4C42F21075C4F808330123FB
:102B9C0063610023C4F80831D4F80831D4F84C34FC
:102BAC00DB0304D5012003F037FE013DF6D138BD1F
:102BBC0000E01050064A13793BB9012110601171E5
:102BCC00044A1846C2F8403470476FF077007047DB
:102BDC004806002000E0105010B51D4B1D4CD3F8DA
:102BEC004C14D3F84C2411F4803F19D002F003029A
:102BFC00012A01D08AB90022154BC3F840240022C7
:102C0C00C3F80821D3F8082101221A6122688AB975
:102C1C00D3F80821002AFBD014E0FFF7B1FFEAE754
:102C2C00D3F84824D107E6D5D3F850249207F4D42E
:102C3C0022681AB10422C3F8042310BDD3F808216A
:102C4C00002AFBD00022C3F80821D3F80831F4E79E
:102C5C0000E0105048060020F8B50125184C194E1C
:102C6C00D4F80C3303F00C0303B9F8BDB3FA83F3B7
:102C7C000027C3F11F039A0002F5807292B202F191
:102C8C00A04202F58712176005FA03F1022B1268B5
:102C9C00D8B2C4F8081310D1D4F84C34D4F84C344E
:102CAC009B070AD10423C4F84054C4F804332561AB
:102CBC00D4F80C3303F00C03D6E733689847F7E7E6
:102CCC0000E0105048060020712238B5104B00214E
:102CDC00C3F80823012242F210745A60C3F80011A1
:102CEC00D3F800110B490A4DD1F840131C2908BF29
:102CFC00DA60D5F80C3413F4803305D0012003F0DE
:102D0C008BFD013CF5D138BD034A5371FBE700BF85
:102D1C0000E0105000C0FF0050060020054B02469A
:102D2C00187918B91A6001221A7170476FF0770080
:102D3C00704700BF500600200022164BC3F810212C
:102D4C00D3F81011C3F81821D3F81811C3F81421B3
:102D5C00D3F814111049D1F840131C2904BF0121D8
:102D6C009960C3F80021D3F8002101221A600B4AA4
:102D7C00126852B9074BD3F80021002AFBD000226D
:102D8C00C3F80021D3F8003170477122C3F8042333
:102D9C00704700BF00E0105000C0FF00500600203C
:102DAC00F8B50126194C1A4DD4F80C3303F0710305
:102DBC0003B9F8BDB3FA83F30021C3F11F039A00E2
:102DCC0002F5807292B202F1A04202F587121160F4
:102DDC0006FA03F7042B1268D8B2C4F8087308D0AB
:102DEC00062B10D02B689847D4F80C3303F07103E2
:102DFC00DEE702236B71C4F81411D4F814312023CC
:102E0C00C4F80433EEE76971ECE700BF00E0105042
:102E1C0050060020036803F01F025F2B02604FEA8C
:102E2C0053129ABF024B53F822000020704700BF88
:102E3C00C4810000034A4309D35C00F01F0018440E
:102E4C00C0B270474D880000F0B50646002487B02C
:102E5C00114F019117F8012B06AB03EBD20313F8BA
:102E6C00143C02F00702D34013F0010306D10134E5
:102E7C00032CEFD10023184607B0F0BD074A03AD71
:102E8C0007CA85E8070055F824100A6A46F824207A
:102E9C000A62002AEBD0EEE75D880000808000001B
:102EAC00F7B504460846FFF7C5FF04EB4006B38AA6
:102EBC000D46DB072AD5204603F0E7FD29462046C0
:102ECC0003F054FD50B1204603F066FD0023276843
:102EDC0007EB8000C0F81035C0F8103529462046A5
:102EEC0003F083FD002101A8B1820195FFF792FF49
:102EFC00019B00EB8300D0F88020064B134043F07D
:102F0C000203C0F88030084603B0F0BD6FF0150026
:102F1C00FAE700BFF0F0FCFF2DE9F043044685B062
:102F2C00084615461F46FFF785FF0E46804625B31B
:102F3C00204603F026FD18B9204603F017FD18BBF8
:102F4C0004EB4809B9F8143003F01C0313B16B7887
:102F5C00012B19D001238DF80F3000233046CDE919
:102F6C0000536A1CAB1C0DF10F0103F0A7FCB9F860
:102F7C00143043F00303A9F81430002F3ED031462F
:102F8C00204603F0FEFC20B96FF0150005B0BDE83B
:102F9C00F0830022397823684FEA810C03EB81031C
:102FAC00C3F81025C3F8102504EB4802938A23F4C8
:102FBC00604323F0200393827D78FDB12468B878B8
:102FCC006444D4F810750E4B2D043B40C4F81035F6
:102FDC0041F6F07305F4403503EA06130005D4F806
:102FEC0010752B4300F4801003433B43C4F8103599
:102FFC00938A43EA413343F0200393820020C5E7D0
:10300C000FE0ECFF70B590F87440054690F87560D1
:10301C0044BB46222146143004F0CEFA2146134A12
:10302C002B6852F836608E4212D1002440F20D10FB
:10303C00C3F84441D3F844210D4A934208BFDB2026
:10304C00FEF708F90123204685F874302B6670BD15
:10305C00CAB2920002F58070442A04BF1C501A5860
:10306C000131E0E76FF07700F1E700BFD08100009D
:10307C0000A00D5090F87500024B03EB800003F09C
:10308C00E7BB00BFA402002010B5064B90F87500FA
:10309C000C4603EB800003F0C1FB0028A4BF20709A
:1030AC00002010BDA40200202DE9F04F804658F8F6
:1030BC0004BB90F87540DBF814136A4BC9B253F893
:1030CC00342007468BB0584641F4003103F0B6FC6F
:1030DC008203054639D50023CDE907330993614BAB
:1030EC00E60003EBC404636807A819460093FFF7D6
:1030FC00ABFE331D03934FF0000A5B4B0DF11C0923
:10310C000293029A574912F8013B0292039A02EB7E
:10311C00D3028A5C03F0070322FA03F3DB071AD409
:10312C000AF1010ABAF1030F09F10409E9D14FF4CC
:10313C0000310022584603F081FC009907A8FFF7E4
:10314C0083FE0028D7D125F400350124002D73D13E
:10315C000BB0BDE8F08F454B53440493D9F8006095
:10316C00002EDDD096FAA6F6B6FA86F6049B1C78ED
:10317C0046EA44142046FFF75DFE07EB4000818AC7
:10318C00F208C1F3820305930193012319F802009D
:10319C0006F0070603FA06F620EA060009F8020014
:1031AC0006A80694FFF736FE069A11F0100F02F1EE
:1031BC00200250F82260059BC6F3014623D04046FE
:1031CC00019A214603F0F2FB06A80694FFF722FEB3
:1031DC00069BF6B2203350F82330C3F301439E42D2
:1031EC0007D10021204603F0B2FB3146204603F004
:1031FC00AEFB06A80694FFF70DFE0122069B02FA11
:10320C0003F30362AAE7022E14BF02210321204616
:10321C00059303F09CFB059B032B03D0022E07D1D7
:10322C00012BE6D121464046019A03F0BFFBE0E7B3
:10323C00032EDED1022BF4E795FAA5F3B3FA83F350
:10324C0004FA03F225EA020503F5A2725BF82220C8
:10325C0007EB43034046B3F86410C2F3014203F09A
:10326C00A5FB73E7D08100005D8800005D8800003D
:10327C000123034A03FA00F09368034393607047F9
:10328C000001002073B504460191EFF31186202351
:10329C0083F31288BFF36F8F0B4D019B6A6801A8F3
:1032AC001340019303F0BAFA002807DB01226B6884
:1032BC00824023EA02036B602070002086F31188A1
:1032CC00BFF36F8F02B070BD000100204FF0FF32D2
:1032DC006FF0404330B5044CD4E90001824273EBEB
:1032EC000105F9D330BD00BF40270E5030B50C2579
:1032FC00074B1C1894F8544005FB0433C3E9031224
:10330C0018750123034A8340C2F8243330BD00BF33
:10331C000001002000200E50F8B53E4C2278002A07
:10332C0072D13D4BD3F8101521F00201C3F81015E2
:10333C00D3F8101541F00101C3F810150521C3F89D
:10334C00A4160421C3F8AC160723672101F0010071
:10335C000244013BD2B24FEA5101F7D1052A56D1B2
:10336C0019464FF0010C2B4E00256720CFB204E01C
:10337C000CFA02F220EA0200013590FAA0F25FFA90
:10338C0085FEBE45B2FA82F2F2D3013132750529BF
:10339C00224482F8547006F10C06E5D10121002577
:1033AC001E489A0801FA02F212F0670F18BF1D505E
:1033BC000433302BF5D1E420FDF74CFF164B1849A4
:1033CC00D3F8102503F5C07322F00202C3F8902342
:1033DC0040F6FF72C3F8A82100221A60A3F5807092
:1033EC0004338B420260F8D101250B4B0D4A1D664C
:1033FC000D4B5D201B68B3FBF2F358430B4B2B4377
:10340C00984700202570F8BD6FF07700FBE76FF050
:10341C008B00F8E70001002000200E5000210E5018
:10342C00B0210E5040420F00A0020020A0800000EE
:10343C0038B5244B0D46D3F8102594073CD4D3F85B
:10344C00102542F00202C3F81025C0B1D3F848276A
:10345C0012F0010202BFD3F8481741F00101C3F882
:10346C004817184BD3F84017D3F844174800F9D431
:10347C002AB9D3F8482722F00102C3F84827124B87
:10348C00124A1B68B3FBF2F30E4A03EB4313B3B1BE
:10349C00D2F84017D2F8441749000BD44FF0FF3143
:1034AC002846FFF7EFFE044610B92878FFF7E0FE38
:1034BC00204638BD013BEAE76FF07704F8E76FF080
:1034CC007304F5E700200E50A002002040420F00CC
:1034DC0070B51E461546174A9DF81010131893F830
:1034EC0054300C3302EBC30442F833506660C6F31D
:1034FC0013020401A1B104F1A04404F56224C4F840
:10350C002055C4F824250C4C80000444236833B1A6
:10351C00FFF7DCFEA842B14101D20023236070BD4D
:10352C0004F1A04303F56223C3F82055C3F8242506
:10353C00F5E700BF0001002000210E50F0B50E4D44
:10354C002B1893F8543000010C3355F8334005EB2D
:10355C00C3077E68641800F1A04021F0004146F1D9
:10356C00000641EAC27100F5622045F833407E60E6
:10357C00C0F82815F0BD00BF00010020F7B5284B9E
:10358C00284CD3F82C6304F188070EB903B0F0BDB6
:10359C0096FAA6F00123B0FA80F08340DA43224970
:1035AC0026EA0306231893F85450830019440C237D
:1035BC0003FB0543DB6873B3D7E8EF3F03EA020C68
:1035CC00C7E8EECFBEF1000FF6D1C340DB0719D52B
:1035DC00020102F1A04202F56222D2F82435D2F89F
:1035EC002025D1F800C0BCF1000FCED04FF0000C5C
:1035FC00C1F800C00C2101FB054529690091E9685F
:10360C008847C2E705F10C0304EBC30C54F83320D4
:10361C00DCF80430E5E70A68002AB6D00B60B4E7A2
:10362C0000200E500001002000210E50044B40EAF7
:10363C000120C3F80005D3F80024D207FBD570474E
:10364C0000B0045080F08003032BA0F1800203D85B
:10365C00054B53F82200704707289ABF034B53F8C9
:10366C0020004FF0FF307047E0810000F081000037
:10367C00064B93F86000012806D0022818BF0428D6
:10368C0014BF01200020704700207047580600200E
:10369C00002010B5154B164AC3F8000592F861408E
:1036AC00D3F8041382F86040146821F033010CB194
:1036BC0041F02301C3F81C01D3F81C41C3F81801D5
:1036CC00D3F81841C3F80801D3F8080192F8660042
:1036DC0092F8652000F0010002F00102D20142EAEA
:1036EC0080120A43C3F8002310BD00BF00500D50D8
:1036FC005806002070B5002301264FF0FF340D4A08
:10370C0092F8621018B90BB182F8621070BD90FA81
:10371C00A0F3B3FA83F306FA03F5043342F833400B
:10372C0002EBC3035C6020EA0500012321EA0501DA
:10373C00E8E700BF5806002073B50023044601AA31
:10374C000E464FF48071019303F0E8FA4FF48A713E
:10375C00204603F0E3FA4FF482710546204603F04D
:10376C00DDFA20B11EB115B1144BD3F8343601AAD1
:10377C004FF48471204603F0D1FA4FF48671204641
:10378C0003F0CCFA4FF48871204603F0C7FA0C4BC7
:10379C00234083B14FF48E75294601AA204603F0CD
:1037AC00BDFA291F0835204689B2ADB203F0B6FA2E
:1037BC00B5F5AE7FF0D1019802B070BD00500D5040
:1037CC00C0FF3F002DE9F0410146477A90F8048094
:1037DC00857A007AFFF736FF421C03D16FF0150093
:1037EC00BDE8F0811E4C2E1DB8F1010F44F83600D7
:1037FC0033D13846FFF726FF431CEFD004EBC60647
:10380C0070604B780A781B03120202F4E06203F436
:10381C00805348881343134A02EA004213438A79BF
:10382C000020120702F0E04213434A79D20202F45C
:10383C00006213430A79D20392B213432A0102F1B4
:10384C00502202F55022C2F81835012294F8623049
:10385C00AA40134384F86230C2E74FF0FF30CDE743
:10386C00580600200000FF012DE9F0410024069DC0
:10387C009C46344B83F8654083F866409C601C6121
:10388C001D6083F863009C832F4BC3F8F015C3F8BD
:10389C00F425002D4BD02322C3F8002300244FF035
:1038AC00010E284B284D0EFA04F7074042D0D3E9FD
:1038BC0008124E1C42D00E0B05BF4E0901F01F0121
:1038CC00A1F5805141EA062114BF41F0004141F0BD
:1038DC008041260106F1502808F55028B2F1FF3F2F
:1038EC00C8F810152CD0110B05BF510902F01F029E
:1038FC00A2F5805242EA012214BF42F0004242F08B
:10390C008042002F14BF61460021C8F814252E44B4
:10391C00D6F81825013422F4006242EAC122082CA0
:10392C00C6F8182503F10803BDD1BDE8F081C3F832
:10393C000053B3E739464FF0FF32CAE70021C8E71E
:10394C000022DEE75806002000500D500122084BE3
:10395C004FF400109A600022C3F81421D3F814110C
:10396C000449C1F89801C3F80025C3F80025704735
:10397C0000500D5000E100E070B5204D95F860400E
:10398C00002C38D10126FF2085F86060FFF7B2FECD
:10399C001B4B1C48C3F80041D3F80021C3F8044169
:1039AC00D3F80421C3F81041D3F81021C3F8144103
:1039BC00D3F814311C239A0806FA02F111F0330FD4
:1039CC001CBFA3F1AF21A1F5720102F1FF3218BFA8
:1039DC000C6006FA02F218BF096812F0330F1CBF14
:1039EC001C501A5808335C2BE5D1D520FDF732FC5E
:1039FC000020286070BD6FF07700FBE758060020B0
:103A0C0000500D50FC500D50014B93F86200704764
:103A1C00580600202DE9F74307469946FFF728FE84
:103A2C00044608BB08260125DFF84C8098F8623064
:103A3C002F4203D02B421CD00134E4B2013E4FEA9A
:103A4C004505F5D10D4B3846C3F8F865131E18BF64
:103A5C000123CDF80090FFF707FF0223304688F8CA
:103A6C00644088F8603001E06FF00F0003B0BDE8EF
:103A7C00F0836FF01500F9E75806002000500D5048
:103A8C002DE9F341804615461A46FFF7F1FD06462F
:103A9C00002837D10820344601231F4F97F862C005
:103AAC0018EA030F04D013EA0C0F2ED00134E4B241
:103ABC0001384FEA4303F3D16B8813B1012C27D89B
:103ACC0032B328786B7818B113B9012C20D80126A1
:103ADC00009202464046FFF7C7FE6B880F4A0BB1B7
:103AEC0043F48053C2F8F83587F864402B790020F2
:103AFC0087F86730042387F8686087F8603002B075
:103B0C00BDE8F0816FF00F00F9E76FF01500F6E7F4
:103B1C006FF08500F3E700BF5806002000500D50F1
:103B2C0030B51E4A0446136973BB00F06043B3F111
:103B3C00005F2CD192F86450B1FBF5F305FB131028
:103B4C0040BB0BB2002B25DD92F86030052B06D85C
:103B5C00032B0CD8022B0FD06FF0760030BD062B48
:103B6C00FAD10F4B4D00C3F82C46C3F8305693686E
:103B7C003BB1C2E90441F1E78D420BD1C2E90245E8
:103B8C00ECE7C2E90241E9E76FF07700E6E76FF096
:103B9C000C00E3E76FF00600E0E700BF58060020DA
:103BAC0000500D502DE9FF41544CA368002B00F040
:103BBC00A18094F86020022A06D0042A34D06FF039
:103BCC00760004B0BDE8F08101264D4DC5F80065C6
:103BDC00E2682168B24049B1032184F86010C5F84D
:103BEC002C36C5F830262E600020EAE7C5F82C36B6
:103BFC00C5F830262E6003F0A9F804F108036E60B6
:103C0C00019302200199FFF797FD0028F9D00022BB
:103C1C003B4BC3F80821D3F80811C3F80C21D3F897
:103C2C000C11C3F80025DFE74FF00108344DC5F83F
:103C3C000085276867B1052284F86020E268C5F822
:103C4C002C3602FA08F2C5F83026C5F80080CBE70E
:103C5C0094F86420A18B039203EB4103520002936E
:103C6C00C5F82C36C5F83026C5F8008003F06EF880
:103C7C0094F8683063BB0123214D6B60022002A9CC
:103C8C00FFF75AFD0028F9D00023C5F80831D5F804
:103C9C000821C5F80C31D5F80C21A18B94F86420BF
:103CAC000A44E16892B28A42A28321BF154AA383D7
:103CBC00D2E90201C2E900014FF0000224BF2361E6
:103CCC0018460F4B38BF6FF00F00C3F8002578E78C
:103CDC00D5F8F465F6B208FA06F6013EBE42CAD92A
:103CEC00C5F8048000210420FFF726FD0028F9D038
:103CFC000137F3E76FF00B0063E700BF58060020B5
:103D0C0000500D5060060020F8B50246FFF7B0FCDD
:103D1C00002851D12A4E2B4C96F86030726086F8F0
:103D2C006130072386F860300123C4F80035D4F8DD
:103D3C000453C4F80003E3603AB125F0C00545F024
:103D4C003305C4F800530020F8BD00211020FFF704
:103D5C00F3FC0028F9D00023C4F80431D4F8043162
:103D6C00194B0127C4F82C360423C4F830362760CD
:103D7C0002F0ECFFA76000212020FFF7DDFC0028FB
:103D8C00F9D000220F4BC3F80421D3F80411C3F867
:103D9C000821D3F80811C3F8002596F8611086F8AD
:103DAC006010C3F81C21D3F81C11C3F81821D3F8E8
:103DBC001821C3F80053C6E76FF00F00C4E700BF2B
:103DCC005806002000500D50700600207FB533209F
:103DDC006249FFF7B1FC10F0100F05465F4E0BD097
:103DEC0010225F4BC3F80823B218C3F82C26042208
:103DFC00C3F8302601221A6015F0200F594C12D04E
:103E0C0094F86030072B07D0554BD3F83436C3F3F6
:103E1C004E03E36000232361514BD3F80433DB06DC
:103E2C0001D5FFF735FCA80717D500228DF8042023
:103E3C00A26894F860300292E268062BADF80C2070
:103E4C0017D0072B33D0032B07D1FFF77FFD0223AD
:103E5C0084F86030236801A89847E9074FD594F897
:103E6C006030033B042B4AD8DFE803F05A49284161
:103E7C005E0094F8673023B1236913B10122384BEB
:103E8C001A60236801A89847374B93E80300002376
:103E9C0086E803002361A368002BDED1FFF756FDF3
:103EAC00042384F8603005238DF80430D2E7FFF743
:103EBC00EFFB02238DF804306368CCE7042301A8E0
:103ECC008DF8043023689847254BD3F8F825D20495
:103EDC0044BF01225A600623216984F8603031B155
:103EEC0063691F4A5B00C2F82C16C2F8303623698E
:103EFC002BB9032301A88DF804302368984794F854
:103F0C006030072B0AD0164B1848D3F80433002125
:103F1C001840FFF711FC012685094DB904B070BD9E
:103F2C0001220F4B5A60EAE701220D4B9A60E6E73B
:103F3C0095FAA5F3B3FA83F306FA03F225EA020520
:103F4C005A08DB4303F001038DF809308DF8046047
:103F5C0023688DF8082001A89847DEE7600600204A
:103F6C0000500D505806002068060020C0FF3F008E
:103F7C0038B5EFF31185202383F31288BFF36F8FCD
:103F8C00064B9C6802F026FF85F31188BFF36F8FF8
:103F9C002046BDE83840FDF717BA00BFC406002024
:103FAC0038B50A4B53F82040013053F82050A54245
:103FBC0000D838BD606830B1037EDB0701D402F055
:103FCC00DEFE0834F3E723689847FAE71082000016
:103FDC00012270B5294B86B003201A70FFF7E0FF61
:103FEC0003F084F80420FFF7DBFF254C254D264613
:103FFC00AE4204F130040FD300F0B4FB204CAC42C1
:10400C0026D300F0C3FBFCF7FBFB1F4A938923F07C
:10401C000103938106B070BD54F80C3C059354F821
:10402C00103C049354F8143C039354F8183C02933A
:10403C0054F81C3C019354F8203C009354E90A2397
:10404C0054E90C0100F0DAF954F8303C5E65CEE727
:10405C00D4E90A23B3F1FF3F08BFB2F1FF3F05D00B
:10406C0052EA0301206803D102F08EFF3034C6E718
:10407C000649183000F08CFDF8E700BF6F0A0020ED
:10408C00288000002880000010040020F16E000041
:10409C00882370B5134E012203FB0066002386B003
:1040AC00CDE904230F220193CDE9023214234FF4FE
:1040BC00A0720D4D0D4903FB0055044602FB001187
:1040CC000B4B3046009500F099F9337C2C7423F09F
:1040DC0004033374074B013403EBC423EE606B60B1
:1040EC0006B070BD88030020C406002078120020A2
:1040FC00E76D0000780A00207FB50020FFF750FF25
:10410C00284B03F5006282F3088883F30A880024A5
:10411C00E023254D85F82230EC772C766C76AC7646
:10412C0085F820406B6A43F4E0236B6285F82340EA
:10413C00FCF7FCFFFDF732F94FF0FF33AB62EB629B
:10414C00FDF714FBFDF7AEF9184800F095F90120C6
:10415C00FFF726FF0220164DFFF722FF00F040FB71
:10416C00144B4FF480625D61134B1449059301238A
:10417C002846CDE90343CDE90144114B009400F0EE
:10418C003DF906462B7C284623F004032B7402F0E1
:10419C0075FE2046FFF77CFF31462846084AFDF79E
:1041AC00DDF800BF780A002000ED00E09804002044
:1041BC0010040020C406002006880000B81300205C
:1041CC00DD3F00002DE9F341044617461E46EFF390
:1041DC001188202383F31288BFF36F8F304BC26892
:1041EC009B6872B18068984217D057EA060216D1C4
:1041FC0088F31188BFF36F8F6FF00F0002B0BDE82A
:10420C00F08193F90E1001322161C4E9023288F376
:10421C001188BFF36F8F0020F0E72169F3E793F962
:10422C000E1090F90E30994230DA9942A8BF194617
:10423C0002F0DEFD054622464146CDE900761948DE
:10424C0000F002FA0028E6D0EFF31186202383F366
:10425C001288BFF36F8FA068D0B1236821699C428C
:10426C000AD04BB193F90E309942A8BF19466FF0A2
:10427C007F039942B8BF194602F0BAFD40B13146EE
:10428C00084802F055FE6FF00A00B7E70025D2E7A8
:10429C00002DF4D186F31188BFF36F8FF3E700BFC5
:1042AC00C4060020700A0020F8B583680546002B70
:1042BC0040D0234A926893423FD1C368012B03D963
:1042CC00013BC3600020F8BDEFF31187202383F37B
:1042DC001288BFF36F8F0169806802F089FD2C682A
:1042EC00A54207D10023C5E9023387F31188BFF338
:1042FC006F8FE7E7002CF5D0D4E90032002613606D
:10430C005A60237CC4E9006623F002032374A66080
:10431C0004F1180002F0A3FEAC6094F90E302046B4
:10432C002B61C4F8806002F0A9FD3946054802F003
:10433C00FFFDC7E76FF01500C5E74FF0FF30C2E790
:10434C00C4060020700A002070B5EFF311862023FC
:10435C0083F31288BFF36F8F0468A0421BD0D4B1D3
:10436C00D4E90032002513605A60237CC4E900555F
:10437C0023F002032374A56004F1180002F06FFE11
:10438C002046C4F8805002F079FD3146BDE87040FB
:10439C00064802F0CDBDD0E902329A4218BF013373
:1043AC00836086F31188BFF36F8F70BD700A002095
:1043BC0013B5EFF31181202484F31288BFF36F8FB0
:1043CC00846844B1013C846081F31188BFF36F8F22
:1043DC00002002B010BD52EA030406D181F311880B
:1043EC00BFF36F8F6FF00F00F3E7CDE900230246A8
:1043FC00014800F029F9ECE7700A00202DE9F043A0
:10440C00984685B000F15803C0E91633109B00267E
:10441C0083810423073222F0070503740F9B01EB01
:10442C0005090F4683734946C0E906668660C67364
:10443C000446FCF779FC0E9B073020F00700206740
:10444C00C4E91A7502930D9BA9EB000901930C9B0F
:10445C004A460093394643462046FCF763FF054B1A
:10446C0066659B6803B15B6F4846636705B0BDE842
:10447C00F08300BFC4060020012303748381002352
:10448C00C0E91A334367014B98607047C40600209B
:10449C006FF00A01094A9368C3F880100849D8677D
:1044AC004B6843F080534B60002383F31188BFF3B8
:1044BC006F8F9368D3F88000704700BFC40600204C
:1044CC0000ED00E070B590F91020037C002A2FDB82
:1044DC00D9062DD11A4C63F07F032246037452F88F
:1044EC00183FE169934207D1C0E900210860E061FF
:1044FC000FE09942F8D01B68002BF5D093F90E60B1
:10450C0090F90E50AE42F4DD5968C0E900310860F4
:10451C005860A569954200D005B9E568A3681A7C76
:10452C00D20606D1DA897F2A03D9AA690AB963614E
:10453C0070BDAB4202D0284600F0ACFA6561F7E7DB
:10454C00C406002038B590F910200146002A037CDF
:10455C0004DA03F07F03037402F058FC0D4D2A4675
:10456C0052F8184FAB68944200D004B9EC688B42F7
:10457C0007D01A7CD20604D1DA897F2A01D9A26924
:10458C002AB1A34202D0204600F084FA23466B6184
:10459C0038BD00BFC4060020B3F1FF3F08BFB2F125
:1045AC00FF3F03D00249183000F0F2BA704700BF49
:1045BC00F16E0000034648B9EFF3058232B9064AA2
:1045CC0051699268914201D0FFF762BF83F3118861
:1045DC00BFF36F8F704700BFC406002038B5184C6E
:1045EC00A168E0690B68814214BF1A460022496831
:1045FC000B605960A368E1692AB9124AC3E900212A
:10460C000B60E3610AE092F90E5093F90E008542BB
:10461C0012DD5168C3E900210B605360A569094B99
:10462C009D4200D005B9E568A3689D4202D028469A
:10463C0000F030FA656138BD8A42DED01268DBE7E3
:10464C00C4060020DC060020F8B5DDE906670D4B3A
:10465C000C46986811460C4A1060EFF31182202228
:10466C0082F31288BFF36F8F9D68284602F0E0FB3F
:10467C00284632463B46FFF78FFF2046BDE8F84000
:10468C00FFF706BFC4060020E4060020F8B5044678
:10469C00EFF31187202383F31288BFF36F8F037C12
:1046AC0049B203F01F02002A0CBF0126002635D1A7
:1046BC0003F07F032A4D037402F0A8FB2A46037C07
:1046CC00817363F07F03037452F8183FE8699342D7
:1046DC0007D1C4E900200460EC610DE09842F8D0E9
:1046EC001B68002BF5D093F90EC08C45F6DD59688C
:1046FC00C4E900310C605C60AC69944200D004B930
:10470C00EC68AB689C4202D0204600F0C3F96C61A7
:10471C0087F31188BFF36F8F3046F8BD9B071CD50C
:10472C00856802F073FB81732B689D4209D16B681D
:10473C00C4E900531C606C60EAE76A689A42F6D0E0
:10474C001B68002BF3D093F90E208A42F5DD5A68D2
:10475C00C4E9003214605C60DAE78173D8E700BF0B
:10476C00C4060020EFF31181202383F31288BFF3DA
:10477C006F8F054B9A68D37B013BD37381F3118800
:10478C00BFF36F8F704700BFC406002070B5EFF306
:10479C001186202383F31288BFF36F8F0F4DAB6804
:1047AC00DA7B0132DA732A4652F8184F944200D061
:1047BC0004B9EC681A7CD20604D1DA897F2A01D9B3
:1047CC00A2692AB19C4202D0204600F063F923462C
:1047DC006B613046BDE87040FFF7ECBEC4060020AC
:1047EC00024B03F11802C3E906227047C4060020ED
:1047FC0070B5EFF31186202383F31288BFF36F8F0C
:10480C001A4CA168E0690B68814214BF1A46002259
:10481C0049680B605960A368E1692AB9144AC3E975
:10482C0000210B60E3610AE092F90E5093F90E003F
:10483C00854216DD5168C3E900210B605360A56900
:10484C000B4B9D4200D005B9E568A3689D4202D090
:10485C00284600F01FF965613046BDE87040FFF74F
:10486C0017BE8A42DAD01268D7E700BFC406002010
:10487C00DC060020F8B550EA010306460C4603D1CD
:10488C00FFF7B6FF0020F8BDEFF31187202383F369
:10489C001288BFF36F8F124D124BA8681860FFF788
:1048AC0051FEA868234632460F49183000F070F9C3
:1048BC00AA680446137C384643F004031374FFF7CC
:1048CC00E7FDAB68D3E90A23B3F1004F08BF002A18
:1048DC00D8D102F0F9FB201A20EAE070D3E700BF30
:1048EC00C4060020E4060020F16E0000014B98681D
:1048FC00704700BFC40600202DE9F84304468789A1
:10490C00EFF31186202383F31288BFF36F8F037CA0
:10491C00190705D586F31188BFF36F8FBDE8F883AF
:10492C00D90943F008026FD10274A36813B1204671
:10493C0002F074FA04F1180002F091FBA56D04F179
:10494C005808A84511D04FF0000975B1284602F05F
:10495C0065FA05F1180002F082FB2846C5F8809034
:10496C00FFF7B0FDA56DA845EFD1DFF8BC80D8F8F6
:10497C0008309C4250D1EFF30589B9F1000918BFFA
:10498C004FF00109D8F81850284A954200D00DB9BB
:10499C00D8F80C50AB4202D0284600F07BF82046E9
:1049AC00C8F8145001F071FDB9F1000F02D0204885
:1049BC00FFF762FDD8F808309C4230D1EFF3058345
:1049CC006BBBA289D20711D586F31188BFF36F8F09
:1049DC0083F31188BFF36F8F0423184602DFEFF3C4
:1049EC001186202383F31288BFF36F8F3046FFF7B5
:1049FC004FFDFB0792D5002383F31188BFF36F8F14
:104A0C000423184602DF89E703F07F0343F0080311
:104A1C00037402F0FBF988E74FF00009B2E786F364
:104A2C001188BFF36F8FE4E7C4060020DC0600207A
:104A3C0098040020027C034612F01F0210D10A4990
:104A4C0088420DD00949086868B1D9897F2909D8ED
:104A5C0093F90E20064B1B689A42B8BF0020704792
:104A6C00002070471046704788030020AC020020DD
:104A7C00E80600200122044BC01A044BC010584316
:104A8C00034B1A54704700BF20050020ABAAAAAAFA
:104A9C00700A002070B50C4B0C4D1E7CFFF7CAFF42
:104AAC00182303FB06550446284602F0D8FA0022C8
:104ABC00074B9A553CB1621E2846BDE8704005492B
:104ACC00D31700F065B870BDC40600202005002087
:104ADC00700A0020814A000038B5EFF311852023BD
:104AEC0083F31288BFF36F8F0F4B104A9C681068CA
:104AFC00A04206D1FFF7CEFF85F31188BFF36F8F6D
:104B0C0038BD00211B7C1160094AD35C002BF3D00B
:104B1C002046FFF78FFF0028EED0237CDB0601D167
:104B2C00FFF75CFD2046E5E7C4060020E406002004
:104B3C00700A0020024B1868984208BF002070478A
:104B4C00B0020020034B1B680BB9FDF7B9BE002067
:104B5C00704700BFEC06002030B570B10B4B5B68A2
:104B6C0098420AD0036843B1D3E90421D0E9044543
:104B7C00121941EB0501C3E90421D0E9003213609D
:104B8C005A600023C0E9003330BD00BFB0020020E2
:104B9C00B3F1FF3F08BFB2F1FF3F2DE9F84F0446D8
:104BAC00994615461F467AD08160EFF31188202371
:104BBC0083F31288BFF36F8FB9F1000FDFF8E4A015
:104BCC0020DBFFF7BFFFDAE90027013549F10009C7
:104BDC002D1849EBE07306464FF00109C4E9045364
:104BEC00AD1843EB0707FFF7A5FF0346DFF8B8E066
:104BFC00DEF804A0EBB9C4E900EACAF80040CEF82C
:104C0C00044028E06FF00103DAE900125B1A4FF060
:104C1C00FF3161EB02025B1B62EB0902012B72F1AB
:104C2C000001BCBF012300224FF00009C0E904328F
:104C3C00D9E7D3E9041CD4E904208A4270EB0C0BAD
:104C4C0024DA891A5A686CEB0000C3E90410C4E931
:104C5C00003214605C60FFF76DFF84420ED1134B81
:104C6C001B685BB9B9F1000F02D1FFF76BFF064669
:104C7C00304602F0DDF90021FDF736FE88F311888D
:104C8C00BFF36F8F28463946BDE8F88F521A60EB98
:104C9C000C005345C4E90420ADD01B68AAE70025DD
:104CAC002F46EFE738050020B0020020EC0600206C
:104CBC002DE9F047DFF8A8900246C9F800000D4630
:104CCC00FFF738FF00260027DFF898804FEAE27ED6
:104CDC00D8E9001350B1D0E9044CA2427EEB0C0A87
:104CEC001ADAA41A6CEB0E06C0E90446002452181A
:104CFC0043EB0E032046C8E90023C9F8004002F03C
:104D0C0097F92146FDF7F0FD85F31188BFF36F8FFE
:104D1C00BDE8F047FFF7E0BE611843EBE473C0E970
:104D2C000467C8E90013FFF717FF01224FF0004397
:104D3C00C0E9042385F31188BFF36F8F836898470C
:104D4C00EFF31185202383F31288BFF36F8FD9F80B
:104D5C000020121BC9F80020FFF7ECFEB6E700BFDD
:104D6C00EC0600203805002010B5EFF31184202349
:104D7C0083F31288BFF36F8FFFF7E4FE0346054AF7
:104D8C00D2E90001181841EBE37184F31188BFF3E9
:104D9C006F8F10BD38050020F8B50446EFF311876E
:104DAC00202383F31288BFF36F8FD0E90423B3F170
:104DBC00004F08BF012A04D087F31188BFF36F8F0F
:104DCC00F8BDD0E90A566A1C46F10003022A73F1B9
:104DDC00000334D3013D46F1FF36002EBCBF002545
:104DEC002E4602F075F9013041F10001401946EBF5
:104DFC000101012871F1000148DB02F069F96FF043
:104E0C000203013041F10001401946EB01018342DC
:104E1C006FF000438B413EDB02F05AF9013041F157
:104E2C0000016FF00102401946EB01034FF0FF3116
:104E3C00121A61EB030320461949FFF7A9FE236BF5
:104E4C0001332363236A63B187F31188BFF36F8F38
:104E5C0020469847EFF31187202383F31288BFF382
:104E6C006F8F54F8185FA542A6D0002DA4D0284609
:104E7C0002F013F80023C5F8803087F31188BFF3D4
:104E8C006F8F2846BDE8F84001F0F8BF6FF00102C3
:104E9C004FF0FF33CFE700224FF00043CBE700BFCA
:104EAC00A54D00002DE9F04105461C4690461F46D5
:104EBC00EFF31186202383F31288BFF36F8FB4F1C5
:104ECC00FF3F08BFB2F1FF3F05D186F31188BFF356
:104EDC006F8FBDE8F081002C09DB012A74F100030F
:104EEC00BCBF0122002412F1FF3844F1FF372846E1
:104EFC0002F0B5F8DDE906010023C5E90A012B63D0
:104F0C0042463B4628460249FFF742FEDDE700BF1A
:104F1C00A54D000070B50546EFF31184202686F3ED
:104F2C001288BFF36F8F02F09AF820B184F31188C6
:104F3C00BFF36F8F70BD6B6A63B184F31188BFF3DD
:104F4C006F8F28466B6A9847EFF3118486F31288AB
:104F5C00BFF36F8F05F1180001F0D4FF0028E5D0E6
:104F6C0001F08CFF2146BDE87040014801F0E0BF24
:104F7C00710A002038B50C4C0C4802F0E7F8657843
:104F8C000A4802F0E9F80A4802F0E0F8022D08D1CC
:104F9C002478E31F5C425C41054802F0DDF82046B2
:104FAC0038BD0024F8E700BFF0060020B80200204E
:104FBC00D002002010B51B4C1B4802F0C7F8237818
:104FCC00590744BF03F0FB0323709A0705D500F083
:104FDC00B1F8237823F002032370134802F0BCF8D5
:104FEC00124802F0B3F8637813B1114802F0ACF830
:104FFC00002304210E48637000F0B6F80B4802F051
:10500C00ABF8094802F0A2F82378DB0705D502F0CB
:10501C0098F8237823F0010323700348BDE810406F
:10502C0002F09AB8F0060020D0020020B80200204E
:10503C00F406002070B5FFF79DFF10B10024204648
:10504C0070BD344802F082F8044620B16FF08F0432
:10505C00FFF7B0FFF3E7304D2B789E0706D400F036
:10506C0061F804462B7843F002032B70294802F0B8
:10507C0073F810B1002CE9D0EAE7002CE8D12548F0
:10508C0002F064F804460028E0D12B78D80706D447
:10509C0002F055F804462B7843F001032B701D48A1
:1050AC0002F05AF80028E5D1002CD1D1194802F0B1
:1050BC004DF80028CAD117482E7802F04DF8002878
:1050CC00C4D1164802F042F804460028BED16B78D1
:1050DC003BB9F10705D5124802F034F80223044617
:1050EC006B700E4802F038F80028C3D1002CAFD1F9
:1050FC00084802F02BF80028A8D12B7805485A074D
:10510C005CBF43F004032B7002F026F8002895D006
:10511C009CE700BFD0020020F0060020B80200205F
:10512C00F40600200122024B002083F8C0227047B5
:10513C00F80600202DE9F0410A4C002526464FF0D8
:10514C00010803272046C4F820802777013501F099
:10515C00D9FF102D04F12C04F4D1002386F8C032B1
:10516C00BDE8F081F806002010B50A46044619B1D6
:10517C00024B00211B68984710BD00BF288200001D
:10518C0010B50C4C206802F063F90B4A1368591CDB
:10519C0011604BB9094A4820D2F8003443F0070398
:1051AC00C2F80034FCF756F82068BDE8104002F055
:1051BC0055B900BFEC020020BC090020008004504F
:1051CC0038B5164D286802F043F9154B1C68013CA4
:1051DC001C60ECB94820FCF74BF80722114BC3F8C4
:1051EC000823D3F8002422F00702C3F80024C3F8E4
:1051FC000041D3F80021C3F80441D3F804214FF443
:10520C008072C3F80841D3F80831074BC3F88821E2
:10521C002868BDE8384002F021B900BFEC0200203C
:10522C00BC0900200080045000E100E070B5104D76
:10523C00104E2B68B34219D0FFF7A2FF00F08CFA86
:10524C0000F0C8FA38B101F089FF0446FFF7B8FF47
:10525C003CB92E6005E000F0D1F9044618B1FFF717
:10526C00AFFF204670BD02F034F8EEE70024F8E7FB
:10527C00E8020020117365000022074BC3F81021CF
:10528C00C3F80C21C3F80021C3F80421C3F808218A
:10529C00C3F81421704700BF0050045008B5FFF745
:1052AC00EBFF01230360104B0A6832B9D3F80C21D1
:1052BC001AB9D3F80821002AF6D00B687BB90B4B2E
:1052CC0099420ED0A3F58473D3F80831002B14BF88
:1052DC006FF002004FF0FF30FFF7CEFF08BD00204B
:1052EC00FAE74FF0FF30F7E7005004500851045034
:1052FC0038B505460C4691B10021012001F00BFD9B
:10530C0008480949C0F80055C0F80445FFF7C6FF26
:10531C0000210446084601F0FEFC204638BD6FF023
:10532C000104FAE70050045000510450034B0449A7
:10533C00C3F800050348FFF7B1BF00BF005004508D
:10534C00045104500450045010B5044600210120AF
:10535C0001F0E1FC064B0749C3F800450648FFF78E
:10536C009DFF00210446084601F0D5FC204610BDE7
:10537C0000500450085104500850045038B50C46E5
:10538C0059B1074D0749C5F800050748FFF786FFD7
:10539C0010B9D5F80835236038BD6FF00100FBE774
:1053AC0000500450105104500C5004502DE9F04F93
:1053BC0089B01C4607460D46164601F067FF0346AA
:1053CC00002840F0F8807A690090C2F3013161F353
:1053DC0005138DF8003013F0300308D1B86880073E
:1053EC0010D06FF08608404609B0BDE8F08F102B46
:1053FC0008D1BDF8023023F4F87343F4A873ADF868
:10540C00023053E0D2B2F82A2ED100224FF0010B19
:10541C00904610469446D7F808E0DFF8D09159F83A
:10542C0004AB1EEA0A0F08D00BFA0CF242EA08028F
:10543C0002F07F08012240EA0A000CF1010CBCF1D9
:10544C00070FECD12AB19DF8032068F347028DF8C1
:10545C0003203EEA000007D17A88FF2A0FD006D835
:10546C00802A35D0C02A35D06FF08508BBE7B2F55D
:10547C00807F31D0B2F5C07FF6D1062200E0032246
:10548C009DF8020062F306108DF8020013B91EF0AD
:10549C00030FA6D13B79022B2BD01FD8012BA0D107
:1054AC00BDF8022063F3C812ADF80220012938D0F0
:1054BC00032923D0002994D13B88B3F5105FD3D1B5
:1054CC00182C03D0202C01D0102C8AD1484F2CE062
:1054DC000122D5E70222D3E70422D1E7032B02D025
:1054EC00FF2B7FF47EAF0222BDF8023062F3C813AB
:1054FC0085E7BDF8023043F4C07380E7202C05D05B
:10550C0006D8102C02D0182C7FF46BAF394F0CE05E
:10551C0024F02003412B01D0302CF5E70136013C5F
:10552C00F4E7302C7FF45DAF334F4FF000080F34AD
:10553C004FEA141905EB080001F086FE002852D042
:10554C0008F10108C145F5D11F2C2ED11C220021D8
:10555C0001A802F031F84FF0000B4FF0FF3A07EBC7
:10556C000B124FEA0B130692BBF1000F26D1009AD7
:10557C000792BDF802203344C2F3C11205920DF11B
:10558C00040C03F1100E624618685968083303C204
:10559C0073459446F7D101A905EB0B00FFF7A8FE64
:1055AC00804670B101F072FE05E04946284601F0D4
:1055BC0055FE0028CAD06FF0920814E7CDF81CA055
:1055CC00D7E71C2101A80BF1010B01F069FFD945AC
:1055DC00C5D11F2C3FF407AFBA20FFF7B5FE00284A
:1055EC003FF401AFE7E76FF08A08FCE62C8200007D
:1055FC0040008151000000201084045010B590B080
:10560C001C22002101A801F0D7FFF82001F01CFE9C
:10561C0000B3202200200DEB020100F08DF90446AE
:10562C00F0B94FF48071104A104B01A8CDE9012359
:10563C000F4BCDE903130F4BF821069320230DEBF1
:10564C000302FFF7B3FE202104460DEB010001F02D
:10565C0027FF05E0F92001F0F7FD0028D9D1044619
:10566C00204610B010BD00BF00240001014B4E803D
:10567C000010C004F800FF7F10B50446FFF780FD52
:10568C00104B186801F0E4FE0CB101232370BFF33A
:10569C005F8F4FF0A3430020D861BFF35F8FBFF340
:1056AC005F8F4FF0FF321A63BFF35F8FBFF35F8FD3
:1056BC003422DA61BFF35F8F0122034BC3F804235A
:1056CC0010BD00BFF00200200080045010B504464D
:1056DC0008B1037843B1FFF773FD044B186801F070
:1056EC00BDFE0CB10023237010BD00BFF0020020E2
:1056FC0038B5164CD4F80051C5B1BFF35F8F4FF0DD
:10570C00A343996ABFF35F8FBFF35F8F4FF0FF32F4
:10571C001A63BFF35F8F0023C4F80031D4F8003153
:10572C000B4B1868BDE8384001F0ABBED4F808311B
:10573C0053B100F069F801F0E3FDC4F80851D4F856
:10574C0008310121034BECE738BD00BF0080045049
:10575C00F8020020F402002008B5074B186801F08D
:10576C007FFE064B186801F07BFEBDE80840002266
:10577C0048201146FBF79EBDF8020020F4020020E1
:10578C0038B5094B1C7864B1084B4FF0FF311D68DC
:10579C00284601F067FE4FF0FF310446284601F021
:1057AC006EFE204638BD00BF6F0A0020F8020020B4
:1057BC0010B5064CE36C3BB9214651F84C3B98694B
:1057CC0001F0A2FD0123E364014810BDC0090020D3
:1057DC000C0A002010B50A4B0A4C236003F5C04399
:1057EC0063602461FFF7E4FF236D0020B3F5007FB5
:1057FC00CCBF4FF480634FF40073A36010BD00BFA7
:10580C0000208051C009002000487047C0090020CA
:10581C0000212DE9F043064695B00846FFF72CFF12
:10582C000DF12705044625F01F0520B115B0BDE884
:10583C00F04301F093BC4FF01009DFF88080012297
:10584C0010211F4801F0F6FC1D4A2B190093202152
:10585C001023CDF80490A2F1200000F00DF90746BA
:10586C0050B10020FFF732FF384601F077FC0746B5
:10587C00384615B0BDE8F083D8E90C32103401334A
:10588C0042F10002302CC8E90C32D8D1FFF71EFFD0
:10589C0026B122463146284601F0BFFC2E46074C65
:1058AC000FCE0FC496E80F00203584E80F0095E862
:1058BC000F00103484E80F00DAE700BF4005002029
:1058CC0060050020F0B5194D194FAB6B8DB0BB4284
:1058DC0029D0184E306801F0BBFD40230022194638
:1058EC00284601F0D2FD3021684601F033FD044614
:1058FC0078B96846FFF78CFF044690B9302302460E
:10590C001946684601F0C1FD01220023C5E90C23AC
:10591C00AF63306801F0A2FD204601F01FFC0DB012
:10592C00F0BD0E24F5E70020F9E700BF400500208C
:10593C00B4A5B4A5FC0200202DE9F04F99B00DF1EF
:10594C00570902F10F0A04468846154629F01F092B
:10595C004FEA1A1A32B1002900F08580B2F5803F67
:10596C0000F28180414F424E386801F071FDD6E95A
:10597C000C32134308D12046FFF7A4FF044618B19C
:10598C00386801F06BFD5AE0D6E90C231AEB0202E1
:10599C0043F10003B3F5803F14D3302102A801F08A
:1059AC00D9FCF8B902A8FFF733FF04460028E7D169
:1059BC0030230246194602A801F067FD002200239D
:1059CC00C6E90C2300210846FFF756FE044660B9D1
:1059DC0010249DB92846FFF779FE2846FFF718FFDB
:1059EC000446CDE76FF09204CAE7386801F036FD43
:1059FC00204619B0BDE8F04F01F0B0BB102D4FF0B0
:105A0C0001024FF010011B48AB4628BF4FF0100BA2
:105A1C0001F010FC174A10232021CDE90094A2F1CB
:105A2C00200000F029F8824668B10020FFF74EFEF6
:105A3C00386801F013FD504601F090FB04462046F7
:105A4C0019B0BDE8F08F5A464046494601F0A7FD13
:105A5C00D6E90C32013342F10002C6E90C32A5EB57
:105A6C000B05D844B5E76FF08604E8E7FC0200208C
:105A7C00400500206005002037B54FF48074019478
:105A8C00214C41F00051A16140F6110143F000534B
:105A9C00A3622123E16104F12001616101212262F1
:105AAC00E362069A194B01AD1A60079A256042F021
:105ABC0000521125C3E901122022DFF854C02061E5
:105ACC00C4E902C504F1100565606162DA60BFF3D8
:105ADC005F8F4FF0A3421460BFF35F8FBFF35F8FF4
:105AEC001361BFF35F8FBFF35F8F03235363BFF368
:105AFC005F8FBFF35F8F9363BFF35F8F01F077FC12
:105B0C00431CFBD003B030BD3C0A00202C0A002003
:105B1C0004000020BFF35F8F094A1368BFF35F8F47
:105B2C0043F48071BFF35F8F1160BFF35F8F23F479
:105B3C008073BFF35F8F1360BFF35F8F704700BF3D
:105B4C000010805108B5FFF7E5FFBFF35F8F064AE1
:105B5C001368BFF35F8F43F00103BFF35F8F1360D4
:105B6C00BFF35F8F08BD00BF0010805170B50026D9
:105B7C00C0E9006605460C46FFF702FB01232B70BB
:105B8C00FFF7C8FFBFF35F8F204BDB68BFF35F8F5E
:105B9C009B08013BACB3226842B19A4205D9FFF78E
:105BAC000FFB6FF03F002E7070BD1346D4E901154A
:105BBC00E068002908BF4FF40071002808BFF120ED
:105BCC002469BFF35F8F114A9360BFF35F8FBFF3FC
:105BDC005F8F1564BFF35F8FBFF35F8F5064BFF3AC
:105BEC005F8FBFF35F8F5163BFF35F8F44F48024EB
:105BFC0044F00104BFF35F8F1460BFF35F8F00208C
:105C0C00D2E74FF40071F1202546DAE700108051FD
:105C1C0070B503780D461446002B52D0BFF35F8F3E
:105C2C002C4A136BBFF35F8F03F00E010A294BD084
:105C3C0013F00C0F02D14FF0FF3070BD4368D3B995
:105C4C00BFF35F8F5368BFF35F8F032BF3D9224BE6
:105C5C002249BFF35F8FD2F88060BFF35F8FBFF331
:105C6C005F8F43F8046BBFF35F8F8B42F1D1FFF76B
:105C7C0069FF01234360BFF35F8F164B9A68BFF334
:105C8C005F8F0132B4EB021F21D8BFF35F8F5A68CC
:105C9C00BFF35F8FB4EB820FCDD884B1BFF35F8FAE
:105CAC00D3F88020BFF35F8F291D05F8012BA94283
:105CBC004FEA122204F1FF34EFD0002CF5D1002072
:105CCC00BBE76FF02000B8E76FF05100B5E76FF05D
:105CDC003F00B2E70010805110108051201080510D
:105CEC0073B50446EFF31186202383F31288BFF3B8
:105CFC006F8F8368594003EA02050A405340002223
:105D0C00009309496B46019201F05EF9DDE900321E
:105D1C0023EA020304F10C003146A36001F008F9F8
:105D2C00284602B070BD00BF4B7500002DE9F04F46
:105D3C0043688BB080469246009383789C0740F171
:105D4C00F98000250878002800F0F68025280AD074
:105D5C004B1C019301354146009B98470028C0F22B
:105D6C00E3800199EEE74E788B1C252E0193F1D040
:105D7C0000270A22B9463C461F2C22D8A6F1200344
:105D8C00102B20D8DFE803F0141F1F1A1F1F1F0B46
:105D9C001F1F1F121F171F1F090044F00104019B36
:105DAC0013F8016B0193002EE6D13AE044F00204A3
:105DBC0044F00404F3E744F00804F0E744F0100462
:105DCC00EDE77F2C24D8A6F13003092B08D8600608
:105DDC004EBF02FB073744F0200402FB0939DEE713
:105DEC002A2E0DD161065AF8043B53D4002BA7BFC1
:105DFC0044F020049946C3F1000944F02804CEE78E
:105E0C002E2E05D1630600F1978044F04004C6E7BE
:105E1C006C2E2ED028D8682E32D06A2E37D04C2E2D
:105E2C0035D0002F46F02003B8BF24F04004A3F176
:105E3C006502BCBF0027A4B2022A01D9612B2BD169
:105E4C000AF1070A07279D4E2AF0070A0AF1080AE9
:105E5C00210760D506EB070B34465C455DD1AE1BC4
:105E6C00A9EB0709A21959E1742E98D07A2E96D075
:105E7C00D7E7260648BF44F4007444F080048EE74C
:105E8C00E00548BF44F4007444F4807487E744F49C
:105E9C00207484E71F4682E7A6F16302122A00F2FF
:105EAC00D880DFE812F013004D00D600D600D600E3
:105EBC00D6004D00D600D600D600D600D600E8009D
:105ECC00D100D600D6001A00D600A0005AF8043B28
